{"abi":[{"type":"constructor","inputs":[],"stateMutability":"nonpayable"},{"type":"function","name":"addAttestor","inputs":[{"name":"_attestor","type":"address","internalType":"address"}],"outputs":[],"stateMutability":"nonpayable"},{"type":"function","name":"attestations","inputs":[{"name":"","type":"address","internalType":"address"}],"outputs":[{"name":"person","type":"address","internalType":"address"},{"name":"timestamp","type":"uint256","internalType":"uint256"},{"name":"verified","type":"bool","internalType":"bool"},{"name":"metadataHash","type":"bytes32","internalType":"bytes32"}],"stateMutability":"view"},{"type":"function","name":"attestors","inputs":[{"name":"","type":"address","internalType":"address"}],"outputs":[{"name":"","type":"bool","internalType":"bool"}],"stateMutability":"view"},{"type":"function","name":"createAttestation","inputs":[{"name":"_person","type":"address","internalType":"address"},{"name":"_metadataHash","type":"bytes32","internalType":"bytes32"}],"outputs":[],"stateMutability":"nonpayable"},{"type":"function","name":"owner","inputs":[],"outputs":[{"name":"","type":"address","internalType":"address"}],"stateMutability":"view"},{"type":"function","name":"verifyAttestation","inputs":[{"name":"_person","type":"address","internalType":"address"},{"name":"_verified","type":"bool","internalType":"bool"}],"outputs":[],"stateMutability":"nonpayable"},{"type":"event","name":"AttestationCreated","inputs":[{"name":"person","type":"address","indexed":true,"internalType":"address"},{"name":"attestor","type":"address","indexed":true,"internalType":"address"},{"name":"timestamp","type":"uint256","indexed":false,"internalType":"uint256"}],"anonymous":false},{"type":"event","name":"AttestationVerified","inputs":[{"name":"person","type":"address","indexed":true,"internalType":"address"},{"name":"verified","type":"bool","indexed":false,"internalType":"bool"}],"anonymous":false},{"type":"event","name":"AttestorAdded","inputs":[{"name":"attestor","type":"address","indexed":true,"internalType":"address"}],"anonymous":false}],"bytecode":{"object":"0x6080806040523461002857600280546001600160a01b0319163317905561043d908161002e8239f35b600080fdfe60806040818152600436101561001457600080fd5b600091823560e01c9081631338e9571461036f57508063203570481461030e57806348a370b6146102765780638da5cb5b1461024e578063c60a1431146101045763e0cae6351461006457600080fd5b346101005760203660031901126101005761007d6103ae565b6002546001600160a01b039190821633036100d057169081835260016020528220600160ff198254161790557f945c4a21d3fce955d17e31fcc471734b3d754c032b3805b02fe75d89c29b2a3a8280a280f35b825162461bcd60e51b81526020600482015260096024820152682737ba1037bbb732b960b91b6044820152606490fd5b5080fd5b503461010057806003193601126101005761011d6103ae565b3383526020916001835261013660ff82862054166103c9565b6001600160a01b03918216808552848452818520549092908116610217578151906080820182811067ffffffffffffffff821117610203578392916003917f4f976a701f2de0c2399c7d0225edce04178064ac9d7ba59903f3125838bdf8e895528583526101f4878401428152858501908a825260608601936024358552898c528b8b52878c209651166bffffffffffffffffffffffff60a01b875416178655516001860155511515600285019060ff801983541691151516179055565b5191015551924284523393a380f35b634e487b7160e01b87526041600452602487fd5b815162461bcd60e51b815260048101859052601060248201526f105b1c9958591e48185d1d195cdd195960821b6044820152606490fd5b503461010057816003193601126101005760025490516001600160a01b039091168152602090f35b503461010057806003193601126101005761028f6103ae565b906024359182151580840361030a577f3a09ead491f39b10357653deccc0c007e57569416bf8c9ae8ed0afc4420652ed92610302602093338852600185526102dc60ff848a2054166103c9565b60018060a01b0316958688528785526002838920019060ff801983541691151516179055565b51908152a280f35b8480fd5b5034610100576020366003190112610100576080916001600160a01b03908290826103376103ae565b16815280602052209081541691600182015491600360ff60028301541691015492825194855260208501521515908301526060820152f35b919050346103aa5760203660031901126103aa5760209260ff91906001600160a01b0361039a6103ae565b1681526001855220541615158152f35b8280fd5b600435906001600160a01b03821682036103c457565b600080fd5b156103d057565b60405162461bcd60e51b815260206004820152600f60248201526e2737ba1030b71030ba3a32b9ba37b960891b6044820152606490fdfea26469706673582212201c4ad25a769e2f50d466516c873c80f39ba9f5d6db819b2acf2954681d08913464736f6c63430008170033","linkReferences":{}},"methodIdentifiers":{"addAttestor(address)":"e0cae635","attestations(address)":"20357048","attestors(address)":"1338e957","createAttestation(address,bytes32)":"c60a1431","owner()":"8da5cb5b","verifyAttestation(address,bool)":"48a370b6"},"id":20}